:2000000000400020B568010001C9011001C9011001C9011001C9011001C9011001C9011040
:1C00200001C9011001C9011001C9011001C9011001C9011001C901103FC9011089
:20003C002DE9F04F85B0804611F8010BDFF81028009008F1FD00009B182B08F1E70508F1EE
:20005C00660A08F20D1B08F5B07408F1860908F59C7608F5C67700F2E183DFE813F01900C7
:20007C006A0080018800DF03DF03F100BA0303011801F40000014701DF03DF039F01DF03DF
:20009C0082016A01C6030B030B035E02DF03A90211F8015B89F80050022208F1880000F0B9
:2000BC00D9FB0146022208F18A0000F0D3FB0146022208F18C0000F0CDFB0146022208F198
:2000DC008E0000F0C7FB99F80010B9F80220490089F800105200B9F80410A9F80220490053
:2000FC00A9F804100222B9F808100901A9F80810014608F1840000F0ADFBBAF81E10B8F893
:20011C000800091A89B247F6FF72914225DAB9F80600B9F80410B9F80820401C4900484358
:20013C00904228BF3B2080F06F8201208AF81C0018E0052208F1610000F08CFB0146022214
:20015C0008F1920000F086FBB9F80C10B8F80800091A89B247F6FF72914280F254820120BA
:20017C0089F80A000021A8F81E10307065E3AA7DD00709D4687B1A210128A97302D1FF22CF
:20019C000D213BE00D210DE200208AF8000001226A7408F1B000082200F05CFB01460222B5
:2001BC0008F1B80000F056FB08F1A80401460822204600F04FFB06460821204600F04EFB67
:2001DC0008F19C0404223146204600F043FB0421204600F043FB08F1A00000F043FB08F1C0
:2001FC00980000F043FBDFF85C06018841F080010180687B012807D1FF220421404605B0C3
:20021C00BDE8F04F12F0D2B89AF811500F2D18BF142D03D00E2D18BF0C2D0FD19AF810402B
:20023C00404614F045FE0421404613F059F8012C12BF29468AF81A50FD21B3E10421B1E114
:20025C000120E873F9E2002100208AF800108AF8060001216973287068700B21A2E1012092
:20027C002874EAE2541C00230932CD5CD65C3543CD54E65C3540C5545B1C082BF5DB9AF85C
:20029C00060000284BD0404613F0CCF8CBE2002302F10906CF5C16F803C04CEA0707CF5477
:2002BC0002F1010E1EF8039007EA0907C7545B1C082BEFDB02206875E97D080703D440F666
:2002DC004800A081E08150788106CAD520891B2804BF60891B2807D1A089B0F5A47F04BFE3
:2002FC00E089B0F5A47FBCD014215BE19BF80000012811D011F8012B8BF8032008F5897046
:20031C00022200F0A7FA0146022208F58A7000F0A1FA01218BF800109AF80600002800F0BA
:20033C00AF819BF8020000282AD1404612F048FB79E2A87DDFF81045C10609D412208BF8E9
:20035C000C00404614F03EFF002819D120786DE2404615F053FC002812D1207866E2087870
:20037C0052E108782070497861709AF8100001280ED19AF811000F38012802D9C01F03D042
:20039C005BE20122727358E2387B40F0010043E205B0BDE8F04F002019F07EBAA87DDFF8C3
:2003BC00A844820709D40F208BF80C00404614F009FF0028E7D1207838E208784A7800EBC0
:2003DC0002203082CA78887800EB022070824A79087900EB0220B082CA79887900EB022018
:2003FC00F082087A30764A7A887A02EB00227283C87A0A7B00EB0220B0838A7B487B00EBC3
:20041C000220F0830A7CC87B00EB022030848A7C487C00EB022070840A7DC87C00EB0220FE
:20043C00B084487D897D00EB0120F084DFF81C0401788A0658BF1A2213D508F5AA7004903B
:20045C00718B0391307E0290B8F808100191F08A0090B38A728A318A404611F0E5FFA0B19C
:20047C001E22A87D410709D40F208BF80C00404614F0A8FE00284DD12078D7E1404605B017
:20049C00BDE8F04F0F2117F08BBB708AA9F804000022B18AA9F806100221F08AA9F80800E6
:2004BC0089F80010A9F80220B8F83400C01DAAF81E00B8F83210B9F80400B0EB510F02BFE8
:2004DC00B9F80600B8F83410884202BFB9F80800B8F83610B0EB111F1DD09AF81000012898
:2004FC0004BF9AF811000F2807D09AF8150020B10F218AF81A10FE2154E0FC21404612F020
:20051C00EFFEF08A0090B38A728A318A98F8060000F0B0F991E1102144E0E87D10F0090F61
:20053C0003D116208BF80C007AE14A78087802F00702104008707A7B0240FA7211D0501EB4
:20055C0002420CD0520704D5B87B10B10421F97205E0F97A0220014219D14008FBD1F87A7C
:20057C0008B9B87AF872F87A042803D1404614F0D1F9A083F87A00F081F93871A28BB97B33
:20059C00012315F075FF218B814202D208E0F872E5E7A28BB97B3879012315F069FF014657
:2005BC0079801721404605B0BDE8F04F12F098BE48780A78824207D100F0070010400870DA
:2005DC0033D0431E18420FD01E221821404617F0E7FA98F80610012301221E200DF0CCFF88
:2005FC00387B40F0400017E1F87247F6FF728878C97800EB012038813989B8F80800091A09
:20061C0089B2914206DB282001218BF80B008BF80A1012E10120B871F97A042903D1404603
:20063C0014F078F9A083F87A0BE09AF81100162806D1BB7A98F806101A4600200DF09CFFFE
:20065C00B87A3871A28BB97B3879012315F010FF218B814206D3A28BB97B3879012315F0D6
:20067C0007FF014679800121387B40F0400038733170E2E0142B04BF9AF80600002806D12C
:20069C003D2101208BF80B108BF80A00D5E00A78487802EB002262828878CA7800EB02205B
:2006BC00E0824A79087900EB022020828879C97900EB0120A08208F5B07108F5B0708A8A09
:2006DC00C089B97A904288BF1046042905D140F691229042B8BF4FF42960E28BE083904270
:2006FC00B87A14BF01250025042805D1404614F011F9A28B90420AE008F5B07008F5B071D4
:20071C008089CA8AA18B904288BF1046884214BF01210021A0830D4308F5B07008F5B07137
:20073C0000894A8A218B904288BF1046884214BF012100210D432083A28BB97BB87A01239B
:20075C0015F096FE218B814206D3A28BB97BB87A012315F08DFE0146798008F5B07008F5FB
:20077C00B0724189108A628B814288BF01466183914298F8063014BF0120002005438A42F4
:20079C0033490A6802EB4311628B8041121DC00F0A7610B1404617F0BDFC009814280ED128
:2007BC0045B1E08B0090638BA28B218B98F8060000F068F81521404611F030F933E01DB1B8
:2007DC00387840F008003870397841F02001397033E008780E280ED00F2809D0122804D0FC
:2007FC0014280BD0162811D027E00021317224E00120307321E0032169751EE0387840F033
:20081C000200387040F01000387016E0387B40F00200387340F0100038730EE08BF80C300C
:20083C00404614F0CFFC40B9074800784FF4804105B0BDE8F04F0CF061BA05B0BDE8F08FFA
:20085C0064280020524F00206E4F0020144E002058290020DFF800F0D1920010DFF800F00E
:20087C00AD710110DFF800F00D720110DFF800F021720110DFF800F0E5BE0010DFF800F02A
:20089C00BD8F0010DFF800F065BF00102DE9F84F012017F08DFC012819D1DFF86C462078A3
:2008BC0000210CF02BFF5FEA000804BF002018F0F3FF002088F8080008F1040013F040FDC2
:2008DC0006F07CFF050003D1812000F045FB17E301206871DFF83426DFF834064178491C8D
:2008FC004170A87988F80A0040202178117005F597740FF0CBF92860D8F854104A78D8F8F0
:20091C005000D1061AD5806D01680A79032A1CBF002018F0C1FFD8F85000816D90F87C00CA
:20093C000A6802F1080601281CBF002018F0B4FFD8F85000D0F88410286846E0C06E016880
:20095C000A79032A1CBF002018F0A6FFD8F85000C16E90F898000A6802F1080601281CBF3D
:20097C00002018F099FFD8F85000DFF8A825D0F8A0102868DFF8A095C16096F826701388E3
:20099C00032F22D8DFE807F00205101801F5B06101E001F53471C160B9F80000E087B9F8B5
:2009BC000010A5F8741113E0E3871188A5F87411C26802F5355206E0E3871188A5F874111E
:2009DC00C26802F6B872C26002E001F5B061C1603078DFF84895DFF848B5C0F38010207080
:2009FC000622B11C05F5947019F0FCFB042206F10E0105F1240019F0F5FBD9F80000AF79B0
:200A1C0000F10C03042206F10E0103EB471019F0E9FBD9F80000AB7900EB4317032206F106
:200A3C00120107F1100019F0DDFB05F12C07707DB870022206F1160105F1300019F0D2FB32
:200A5C00022206F1180105F1320019F0CBFB022206F11A0105F1340019F0C4FB388968847A
:200A7C00022206F11C0105F1360019F0BBFBB87879894000B8700901B88879814000B880E1
:200A9C0089B2F8884000F88003046A8C521CDB0B5A438A4201D280B230B99BF800008021EB
:200ABC000CF02CF93B213FE105F12E01284618F023FF0520A881284619F054F9052206F190
:200ADC001E0105F1610019F08DFB96F823004009387018F085FC6882B8F82A10401AA08179
:200AFC0005F1610196F82300DFF8384400F01F00F873284616F045F8D8F854104A78D8F88D
:200B1C005000D10647BF0022806D0022C06E1C2601680A7141F62102A979206871434252BB
:200B3C000021AB7973430344001D5980AA7972438150D8F85420DFF8F0035178CA060DD52F
:200B5C00DFF8E8138A7851060AD5DFF8E423138841F20A418B4208BFDFF8D803C5F89C01D8
:200B7C00D5F89C11284688472268A97902F10E03714358540021AA792068DFF8BC3372434B
:200B9C000244D173187878B1B88868B979730120288168812846D5F89C2190472168AA797B
:200BBC0001F10E0372439854A8792168704301F10E02135C7B73D8F854104A78D1061AD5FD
:200BDC0095F8960108B918F067FEA97920687143014495F89601421E0A74A87921687043A5
:200BFC000844002141742268A97902F112007143002242522AE0D8F85010236891F84020EE
:200C1C0018440274A879216870430844D8F8501091F841204274D8F850002168AB79403030
:200C3C0001F1120273434188D15205F5CB710078012200F0030082400A70D8F8502092F826
:200C5C004000800814BF012002200871A979D9F800002268DFF8E4A200EB411302F1140CF5
:200C7C0071434CF80130A97971431144B44A8A61DAF81410097895F806E0CA074CBF102223
:200C9C0000228B074CBF202300235FEA417C4CBF4FF0400C4FF0000C09074CBF802100214F
:200CBC0013434CEA030308304FEA4E1E0B4343F00F0300F80E30D9F80010A87901EB4012A0
:200CDC000B215172D9F80000AA7900EB421104208872D9F80020A97902EB4110994A1378FA
:200CFC00012B02D10121C17203E0DAF828104A78C272D9F80000A97900EB41121F201076AB
:200D1C00D9F80010AA7901EB421000214176A8790EF076F8A979D9F8002049015050A979F1
:200D3C004B01D05820B90721284618F0CEFCE7E08548026802EB011000F012F9824AA879FE
:200D5C001368D9F8001003EB00120B1D40011A50081DAA7952018058F863AA795201885824
:200D7C00786404219BF800000BF0C8FFD8F8540042782168D00648BF4FF0020B0BD4A87971
:200D9C0070430844027C02F00302022A14BF4FF0040B4FF0060B684BBA881878934410B109
:200DBC000AB9F8888344688A00FB0BF04FF4C872B0FBF2F2521CC5F818B06A6140F6C41C45
:200DDC00A8792B687043009001F1080ED8680CFB0B0B0098ABEB0202A2F5A8624EF8002062
:200DFC0001F10802A87906FB00FB52F80B00986001F10C02A87970430C31135C03F0EF030C
:200E1C000B54A8792168704301F10C020C31135C03F07F030B54A8792168704301F10C021D
:200E3C000C31135C03F0F00343F002030B54AA79206872431044417B01F0F00141F00101E8
:200E5C0041732068AA7900F1080172438858296808616B69D9F80000A97997F802E05B00FB
:200E7C0000F1140249010CFB0E3303F5F663535095F89611042905D1A9794901535803F583
:200E9C0061635350A97900EB4110C27C02F0F00242F00402C274FB88D9F80010A879DAF88A
:200EBC00307001EB4012386843436427B3FBF7F30CFB03F0A0F59660D061A87901EB4010DC
:200EDC00C17E01F0F00141F00401C176A97920682A684E438119516028460E2112F000FAB7
:200EFC001A4907200870404619F012FAAA790021404613F0B1FF28681549164A41618261E9
:200F1C00BDE8F14F04F07EBBB3290020B4290020684E0020A2290020A0290020582900205F
:200F3C006E4F0020542900202756010064280020504F0020B34B0100784E0020B0CF0100CD
:200F5C005C4D0020734F00208C4E00206F4F00206170010002048080DFF800F09D92001014
:200F7C00DFF800F051A500102DE9F04188B00E46044690461D4601A918F058F8074658BBD0
:200F9C005FEA080013D03088ADF8080002227188ADF80A108DF80C2003218DF80D102822FF
:200FBC008DF80E2002A9204618F086F903E03146204618F081F907000ED1162231460DF1F5
:200FDC000A0019F00FF90198054B8DF808800095092202A916F0CCFB384608B0BDE8F08160
:040FFC002D5E011055
:20100000B41200001810000015AB0110FDB301106DC00110FDAE011099B5011059BA0110D3
:0810200039BA01102D00000097
:20102800B01200003C100000B1C00110A9BF011067C0011069B80110B9B9011099B901104F
:041048003000000074
:20104C00B012000060100000BDC00110CDB30110D9BD01106DB301108DB80110D9B9011062
:04106C00310000004F
:2010700000000000480E002004000000000000000000000020000000E8C9011030000000D4
:2010900028100000500E00200400000000000000000000000C000000D8CA011018000000AF
:2010B0004C100000580E002004000000000000000000000024000000F0CA01101800000033
:2010D00000000000600E00200400000000000000000000001000000018CA01102C0000003F
:2010F00000100000700E0020040000000000000000000000200000006CCA011024000000A3
:20111000FFFFFFFF780E00200400000000000000000000002800000090CA01102400000062
:20113000FFFFFFFF800E00200400000000000000000000001400000008CB011018000000E1
:20115000FFFFFFFF880E002004000000000000000000000058000000B4C9011034000000AF
:20117000FFFFFFFF900E00200400000000000000000000001000000020CB0110180000007D
:20119000FFFFFFFF980E00200400000000000000000000001C000000B4CA011024000000AA
:2011B000FFFFFFFFA00E00200400000000000000000000003800000044CA011028000000D2
:2011D000FFFFFFFFA80E00200400000000000000000000005400000078C901103C00000047
:0811F0000300000070C30100C0
:0411F80001000000F2
:0411FC0000000E00E1
:0412000000000F00DB
:0412040032000000B4
:0412080001000000E1
:04120C00100C0020A2
:0412100000020000D8
:0412140000000000D6
:0412180001C90110F7
:04121C0000000000CE
:0412200000000000CA
:0412240008000000BE
:0412280000002200A0
:04122C008C09002009
:0412300000000000BA
:0412340000000000B6
:0412380008000000AA
:04123C00840B0020FF
:0412400000000000AA
:0412440000000000A6
:04124800080000009A
:04124C00000000009E
:04125000000000009A
:041254000000000096
:041258000000000092
:04125C00010000008D
:04126000280A002038
:041264000600000080
:041268000100000081
:04126C00BC0800209A
:04127000000000007A
:041274000000000076
:041278000002000070
:04127C00000000006E
:02128000290043
:02128200010069
:02128400250043
:02128600300036
:02128800310033
:02128A002D0035
:02128C0001005F
:01128E00015E
:081290000300000088C3010007
:0812980000000000000000004E
:0412A0000000010049
:0412A4000000030043
:0412A80013C401105A
:0412AC00A3A30100F7
:0412B000B812000070
:0412B400B81200006C
:0412B8000000000032
:0412BC00D80D002029
:0412C000B1A50100D3
:0412C4002000000006
:0412C80024C201003B
:0412CC0064C00100F9
:0412D00029C101101F
:0412D400BF1A01003C
:0412D800571E01009C
:0412DC00A1C7011095
:0412E000A3C701108F
:0412E4000000000006
:0412E800B3C001008E
:0412EC00B0BE01008F
:0412F000C8BE010073
:0412F40098BE01009F
:0212F8000200F2
:0212FA000900E9
:0212FC000100EF
:0212FE000000EE
:0113000001EB
:0413040025A501001A
:04130800B57D0100AE
:04130C0065950100E2
:041310009D820100B9
:04131400ED7D01006A
:04131800CD6601009D
:04131C002113010098
:04132000BFA8010061
:04132400FD4A01007D
:0413280015C70110D4
:04132C0025C70110C0
:201330002DE9F843040014D1002018F0BBFA10E0204613F04DFF012808D063E08A0740F1DB
:20135000628101F0FD0101700020B071204613F0B5FD04F16605687D002853D0697CDFF892
:20137000C894022904F1EC0704F59E7804F5B07604F5C67035D0042947D005295DD00629BE
:2013900000F08D800729D3D0092900F0FA800B2900F0C5800C2900F016810D2900F0D58031
:2013B0000E2900F0F8800F2900F03581102900F04F81112900F06781122900F01C81142990
:2013D00000F09281162900F06681172900F08181FC2917D0FD2900F0A081FE2900F0AD812A
:2013F000A2E7287C012809D199F80300002813D01621204618F06FF9012004E0204613F093
:2014100093F828740020BDE8F283287C012840F0B08199F80200002800F0F5800021A971D2
:20143000FF22FC21204610F0C7FFA07904F1B80204F1B00119F048FF8BE7287C012811D153
:2014500099F8020028B1012184F89410002038607860B87A01286BD1FF220621204610F0F9
:20147000ABFF76E704F1E7063078012809D1204616F0A1F90128C5D10020B87201212974FA
:20149000C0E770780028BDD004F1C70204F1A00104F1D70019F014FF0120307059E7297C16
:2014B000012940F06A8199F80200002840D0608CE083204613F002FD01202870204615F031
:2014D00045FB0121A971397A787C012910D1C00609D5002188F80510D8F8001098F80600FE
:2014F000490812F011F8A079002119F0E5FE10E0C00609D5D8F80020DFF8300304F5A173BF
:201510005208214619F088FAA0790122002119F0CFFE002038723873F872B87219E7287C8F
:20153000012806D1F87A012804BFFF22FC2195D069E0204612F0C4FA012821D10020F87286
:2015500084F894000120287403E7287C012811D199F8020048B1002184F89410012028708F
:20157000204615F0F3FA0121A97199F80300002810D148E0204615F04BFD2874E88A288396
:2015900040E7287C012840F0FC8099F80200D0B3608CE083DAE6287C012840F0F680387C4F
:2015B000022804F1FD0204D1A179002019F07CFECCE6032840F0F280A1791A2019F074FE1D
:2015D00000203874C2E6287C012804F20D1140F0F0800878012804F5897240F0F080487809
:2015F000012807D15088009000201388CA78A17919F056FEAAE6287C012840F0EF8099F871
:2016100002000028F6D1288B401E288380B20028B6D12221EDE6287C012840F0E38098F826
:201630000900012802D131780F291BE098F80800012826D1002188F80810288D00090090FA
:201650001A20AA8CEB8CA179520819F025FE7DE6287C012840F0CA8098F80900012810D1A6
:20167000317810291CBF002018F01CF9002088F80900298D09090091AA8CEB8CA1797078AF
:20169000E2E7287F73E7287C01283FF461AF204612F02CFE71E7297C012940F0AB80017BD0
:2016B0004A061DD4CB0709D501F0FE0101730123A179707801220CF065FF47E68A0740F12D
:2016D0009E8001F0FD0101730123A17901221A20F1E7297C012940F09F80017B4A0692D5B5
:2016F00001F0BF01017331E6297C012940F0968001788A067FF522AE01F0DF010A070170E9
:201710000AD501F0F7010170F08B0090738BB28B318BA079FFF7BCF816E6A97EFF22204611
:2017300010F04AFE0EE7FF22204610F045FE012067E6002018F0B6F864E6A97E0C2918BFD1
:201750000E29F0D00F2902D01429ECD0F1E7FF22FC21204610F030FEB8F812000090B8F8D3
:201770001030B8F80E20B8F80C10A079FFF788F848E620460FF0F9FAFFE6204614F07EF994
:20179000FBE6204611F054FEF7E6204611F01AFE28740121E88A2883397433E6288B401E91
:2017B000288380B20028F8D1A179222019F07CFD2FE701208870204611F008F9DDE6288B60
:2017D000401E288380B20028E7D15088009022201388CA78A17919F063FD1AE7204614F069
:2017F000ECF9CAE620460EF061F9C6E620460EF0AFF9C2E6162120460DF06CFEBDE6288BCC
:20181000401E288380B20028C7D1A1790123012222200CF0B7FEFCE61721ECE714212046E1
:2018300010F002F9A9E600BF5C4D0020692901002DE9F04F0446A74DDFF8A092A0782A789D
:201850000FF29C28ADF13C0D002800F0A980DFF888A2401F4BD0401E09D0401E00F03381D7
:20187000083800F02B81801E00F024812EE10020009007460646019740F29C41012202978E
:201890009BA30397404604960DF022FD5146102010F01AFB009040F29D4101970122029754
:2018B00099A30397404604970DF012FDA08815F0A3FD00972A7849461020334610F004FBD8
:2018D000002840F003815146102010F0FDFA40F2AA4191A3C0F10102009201973A4602921B
:2018F00003924046049201220DF0F2FCEEE01020514610F0E9FA617800270091012201905C
:2019100092A3029740F27A410397404604970DF0DFFC6078D8B9608915F05AFADFF858B3DC
:201930000126241D06211323009620465A460FF037FDCDF800B03846019740F287410290EC
:201950008FA303903246049040460DF0C1FC1020514610F0B9FAD0B91020514610F0B4FAEE
:201970003C46C0F10100009040F28C410197012202948DA30394404604940DF0A9FC3B463B
:2019900000932A784946102010F09EFA9EE01020514610F099FA40F2924191A302469BE7D0
:2019B0006078002840F09280267AE7798DF83260A27A8DF83170A0798DF83620E37A8DF8A6
:2019D000300000268DF8373008218DF83460677A8DF833600CAA8DF8357030460AF0DCF955
:2019F0000127A01D06211323A44C009722460FF0D7FC009440463446019440F2434102945F
:201A100088A303943A4604940DF062FC9C49B1E84C1005A8A0E84C100EC980E80E00102099
:201A300005AB9849984A009510F04EFAC0B208B118F0A4FC954E1821304614F047FB00900B
:201A5000019440F255413A46029481A30394404604940DF03DFC18200090DFF83482019608
:201A70002A7823464146102010F02EFAC0B208B118F084FC12200090864E01962A78414663
:201A90003B46102010F020FAC0B208B118F076FC81492A781020922310F016FA2346009369
:201AB0002A784946102010F00FFAC0B270B118F065FC0BE0204614F0B1FE07E077491020D5
:201AD00010F002FA02E0204608F0E0FF0FB0BDE8F08FC046C4270020C9800100BDEC0000F4
:201AF00070726F6A6563745F7A65726F2E6300C044657669636520446973636F6E6E656369
:201B10007465642100C046C04E756D20436F6E6E733A20256400C046526573746172742052
:201B30004164766572746973696E672C20256420706F737369626C6520636F6E6E656374B5
:201B5000696F6E2072656D61696E00C04C696E6B2065737461626C697368206576656E7424
:201B70002C20737461747573203078253032782E204E756D20436F6E6E733A20256400C05C
:201B9000436F6E6E65637465642E205065657220616464726573733A201B5B33326D257388
:201BB0001B5B306D00C046C0436F6E74696E756520746F204164766572746973652C2025BC
:201BD0006420706F737369626C6520636F6E6E656374696F6E2072656D61696E00C046C05E
:201BF0004D6178204E756D626572206F6620436F6E6E656374696F6E2072656163683A2084
:201C100025642C204164762E2077696C6C206E6F7420626520656E61626C6520616761692D
:201C30006E00C04647415020697320737461727465642E204F757220616464726573733A71
:201C5000201B5B33326D25731B5B306D00C046C04E616D6520696E206164766572744461D8
:201C700074612061727261793A201B5B33336D25731B5B306D00C0463C28002028280020F8
:201C90005CC10100B18A0000AF910100E00B0020C1BB0000E40C00207D5E0100357501007C
:201CB0002DE9F84FDFF84044A178FF2904BF002017F0F8FDA07818F0FBFB044604F1680679
:201CD00004F5C9753168086804F1900710B10021E18310E0B07B002804BFB07E00280AD1AB
:201CF0003978002904BF2878002804D1207F012804BF608CE0832189E08B4118491C61810B
:201D1000204617F00EFD01281EBFDFF8E0030178012904D121890020491CE08361814FF64A
:201D3000FF78B07E01280DD1B28B6189208919F0AFFA38B1218960894A1C93B298422CD068
:201D5000B08B20E0387801280DD17A886189208919F09EFA38B1218960894A1C93B298424A
:201D70001BD078880FE02878012816D16A886189208919F08DFA80B1218960894A1C93B245
:201D900098420AD0688892B2904206D04044608180B219F079FA4044E083287801280DD102
:201DB00021896888491C89B2884207D16A792A71002028701346A1790CF0E4FB04F59A71AF
:201DD000087920B120890021401CE183608104F12E07B07E01283ED12289B08B521C92B20E
:201DF000904238D1608104F18601204617F08AFDB08C608400212177E183E08961894118BE
:201E1000A181B08B218919F03FFA8046B988308C728C01FB0808F08C8A4204BF3989884205
:201E300002BFB38CF9888B4207D000090090B38CA1795208002019F02FFAB07F3870718CFB
:201E5000B980B08CF8802046F18C398117F090FF0220B07601E0B7F80480E28BDFF890C260
:201E7000DFF89092501C00FB08F040F6C41808FB00F100912368D3F80CE07144D960DCF85F
:201E900000E09D499EF800A00B884FEA9A1ABAF1030F15D199F80FC05FEACC7E48BF0023F6
:201EB0000ED45B1C1FFA83FCBCF1010F11BFB4F812C004F59A7EBEF806C00CF2DC5C01E072
:201ED000B4F812C00CFB00FC4FF4C87EBCFBFEFCDFF828A20CF1010CC4F814C00B8084F8F5
:201EF00020204FF01C0BA379A0610BFB03F3DAF80010226801F1080001F1080EC05810611C
:201F1000A379D2F80CC060690BFB03F3ACEB00004EF8030001F10803A0790BFB00FC53F8F7
:201F30000C00906001F10C02A0790BFB00F00C31135C03F0F00343F002030B54DAF800008B
:201F5000A179821C0BFB01F100235352287908B917F0A8FCDAF80000A27900F1100128795C
:201F70000BFB02F240088854A079DAF800100BFB00F00844002141742879042814D1A07955
:201F9000DAF800100BFB00F001F110021031135C2A7A43EA82030B54A279DAF800000BFBFD
:201FB00002F2024420205074DAF80000A27900F112010BFB02F200238B525149A2790968C2
:201FD000520101F11403D4F814E053F802C00CEB4E0C43F802C0B27E022A08D1A2795201D7
:201FF0009E583B7808FB036601F114039E5099F80F20D30749D5A2790BFB02F200F10803FC
:2020100008309E58A6F5A8669E5001F11406A27923680BFB02F282589A600098121A1A612C
:2020300001F11402A0794001135803F5F66333502879042807D1A079400101F1140513587A
:2020500003F561632B5001F11400A27952018058C4F834012B4ABE88176B3868A579464378
:202070006420B6FBF0F601F11C036D0108FB06F0A0F596605851A07901EB401022490B7846
:20209000012B1CD10121C1721CE02879A37904280CBF4FF4AA504FF4E66001F114025B01E8
:2020B000D258BB8808FB03F3101AA3F516739842D0D30821204617F00EFB012011E0916A36
:2020D0004A78C272A179DAF800000BFB01F281182268516007200D490870204615F0D6F813
:2020F0000020BDE8F28F00BF684E0020784F0020084F00205C4D0020A42900205429002044
:2021100058290020B0CF0100734F00206F4F00202DE9F04F0546C24CA97860690027ADF171
:202130001C0D0A290FDC0A2900F0B580002900F0CB81491F00F0BD81491E00F08C81C81EAB
:2021500000F07081EBE10B3900F08F80C91E00F08280491E0DD0481E40F0E181227817F0C9
:20217000CFFD002800F07581104604210AF0CCFD6FE12E4628B143681BB1A88839460A4624
:2021900098476078002863D0B08814F0E1FE051C00F0C581B07A400811D36B797BB1012B19
:2021B0000DD0F068800A0AD203F001033A460097A81D194613460BF0B1FF002843D1207A68
:2021D000022802D1B07A00093DD3B6F804806D790C2018F0C3FA06F10809061C00F03981D2
:2021F000A6F80880B5723B463360B9F1000FF77209D04846082117F013FE706020B9304685
:2022100018F0BCFA25E17360A069002808BFA66102D00368ABB90660304618F092FC4A4675
:202230002946404608F032F96069002800F011814368002B00F00D81394640460A4698477B
:2022500007E11846E5E7B088032119F019F866E1B08805211CE0002800F0FB804368002BDC
:2022700000F0F7806A780221D7E018F033FA002800F0EF80606948B104683CB12869009033
:2022900069892A7B6B7BE81CA047E2E06889012118F0F6FFDDE0B8466F78002F40F0AD80C6
:2022B000A9794908C0F0A98002A84146082218F0BBFCA88814F04CFE071C09D1227817F08C
:2022D0001FFD00287AD0104604210AF01DFD75E06869002854D0064641460622113017F01C
:2022F00032FEC24630B330464146062217F02BFEE0B9307C06F11109D346464600F0010072
:202310000590761CF6B289F80060CDF800B005994846524653460BF001FF10B9002EF0D178
:2023300004E01EB1BAF1010F02D006E04FF0010A46466E61BAF1010F22D0686950B30646F5
:20235000307C062206F1110100F001008DF80E0002A817F04DFF787906F11108012805D10F
:2023700007F10C00B91D062217F042FFB81D4146062217F03DFF307C40F00200787109E08C
:202390007879B91D062200F001008DF80E0002A817F02EFFA879C00839BF387900F0FD005D
:2023B000387940F002003871A879000939BF387900F0DF00387940F020003871A9799DF87E
:2023D0000F20C1F3800010438DF80F00080905D39DF80F0040F008008DF80F0002A8294631
:2023F00005F006F95FEA000803D1A88813F0B6FF02E0A88815F012FE606950B3436843B338
:20241000A8886A7801219847687810BBA87940081FD36069032142464368A8880FE7C04647
:20243000600500203B460093E978281D0DF1110201F001010BF072FE58B99DF811104800CF
:2024500005F10C0200EB810025300421C0B217F0A0FB012763E0A88815F0E0FD18F00CFFDE
:2024700000285CD1E07A012814D0207B01280DD02D4C3D4614F8010F012803D1284609F073
:20249000E3FE27706D1C062DF4DB0CE011F072F8277308E017F037FF394604F12000062257
:2024B000E17218F0C1FB502017F074FD13F0B8FC35E0687898BBE8786A892B7B291D00F0DF
:2024D00001000BF0B9F82AE0687840BB18F0D0FE054618F0C9FE044618F0C2FE8DF81000C3
:2024F00010212A46022017F054FB03201021224617F04FFB0420012104AA17F04AFB9DF8D1
:202510001000012803D09DF81000032807D1012015F0FCFF02460620014617F03AFB384667
:2025300007B0BDE8F08FC0467F0500202DE9F84F040004BF002017F0B5F904F1500941F688
:202550002300D9F8006030800021718018F084FE00F57A60B0600221822030737173B06888
:20257000217E2061B1730020F073D9F80410087D022804BF002017F095F9D9F80400007D26
:20259000012802D10020002104E083280CBF0620022020213074717404F1240BD9F8040089
:2025B000DFF878834178480615D5D8F83410486902689BF80500511C00EB4000095A718293
:2025D000607DC10604D5E07F40F04000E07702E040F04000607506F158050020287104F11F
:2025F00030009BF81A10890001F00401297128614FF01E0A607DC10644D506F1300030625F
:20261000D9F8040041788A060BD5617D01F0FE016175407810F0030F03D1E07F00F0FE001D
:20263000E077607D15F098FE0246A275521C307CC0F38001002392B200F0030014F0EAFFC7
:20265000A0831E23A08BE27D00F5FA7100F5FA7090FBF3F34A430AFB13006283C0B208B197
:20267000C0F11E008018A183608380B2B168C03001EB8001A9600220E871E17F41F0080116
:20269000E17714E000203062607D40F001006075D9F804104A78510744BF40F00200607540
:2026B000607D15F059FEA0750020A860E871A07D217D60F3050106F188002175017003217D
:2026D000627D8170427006F128079BF81A10890001F0040141F0030181709BF81B20D20040
:2026F00002F00802114381700021C1708160BBF81C00C0F30B00ABF81C00D9F80410CA7DDE
:2027100040EA0230ABF81C000022617D01F0FE0120460BF093F940F61200B0830021F183A1
:20273000A020706207213970607DC1064CBF00200220787041F62401E07D788039810020C2
:202750007881B168608B01EB800139610220822139757875002094F8211001F03F01B975C9
:20277000F875D9F80410887D012818BF022804D100F07F00401E002104E083280CBF062085
:202790000220202179763876D8F8340041690A689BF80510501C01EB4101405A7883002111
:2027B0006961D9F80400417811F0030F1BD016F0B3F96861D8F818000078C1074CBF1021D4
:2027D000002182074CBF2022002243074CBF4023002300074CBF802000201143194301432F
:2027F00041F00F01297600206876D9F80410887C00F0030068769BF81A10890001F00401F5
:20281000084368769BF81B10C90001F0080141F01001084368764249087838B1687E40F089
:2028300040006876287E00F0FE002876E07F15F093FD84F8200020460BF090FAE07FC10697
:202850003AD5D9F8040094F820204178521C88074EBFD21E9BF81F008218387EC0F38001CF
:202870000023D2B200F0030014F0D4FEABF80000BBF8000000F59671C1F11E0291FBFAF13D
:202890000AFB012A8BF804A0D9F8042051788A074CBF00214FF4FA710818ABF80000ABF842
:2028B0000200BBF800209BF8040039698218C03201EB8201022001E000210020E961E87613
:2028D00004F13000A862D9F804104A78687E510747BF04F1380140F02000124900F0DF0026
:2028F000E9626876022294F82000A17F60F30501A17740F60B00B8840021F984F96229702F
:202910006A7094F845006880D9F804104878810744BF012068800020BDE8F28FB0CF010015
:20293000784E0020D04700202DE9F84F0E46700688B026D5DFF84823107800210AF0E4FE49
:2029500004001ED0DFF83C0301688847054617F0FDFE6168884204BF40F2014018F078FC95
:2029700000202072201D11F0F1FCC7490A6828469047204617F0D2FCFF224321204612F07B
:2029900071FAF0070BD517F0E1FE28B100218160BE48006800B1804786F001006CE1B007C3
:2029B0000FD500210023069105910491039302910191009101223C2018F046FC86F0020090
:2029D0005AE11E277007DFF8C88240F19F80B1480078002107918B460AF096FE0446AE48B6
:2029F0008178FF2904BF002016F05CFFA07A17F05FFD0546606D807A95F82E91022818BF86
:202A1000032805F5947A06D108F10D0018F018FC08B908F1070B5146484618F00DFC88B33D
:202A3000606D807C002818BF012804D14146504615F0E5FE04E052464946404611F00EF922
:202A5000FF283ED007FB00F908EB090706225146F81D17F0CDFB18F8090040F00209F81D27
:202A700007900622616DC87A00F0010085F82E0107F1010A606D00F10C0105F5947017F007
:202A9000B7FB1EE05146484617F062FCC8B152464946404611F0E2F8FF2812D0474308EB65
:202AB000070404F10D0018F0CBFB40B904F10D0018F0C6FB002804BF607F012801D149F069
:202AD000020905F12C004B46017806914289120905920122698C0491C0880799029140082B
:202AF0000390CDF804B0CDF800A00020A97918F0ABFBD5F89C0169498842A8790CBF002172
:202B100001210EF009FF86F00400B5E030060FD50021002306910591049103930291019193
:202B3000009101223B2018F08FFB86F08000A3E0F0045BD55A490C6808F10D0018F080FBA7
:202B5000002842D108F1070108F10D0018F070FB3BE0606D4178480704F13E0523D52878F0
:202B700002281EBF0328687801282DD1697804F13802404611F072F8FF2814D0784308EB52
:202B9000000909F10D0018F05BFB60B909F1070109F10D0018F04CFB062209F1070104F127
:202BB000380017F025FB2878022818BF03280BD108F10D0018F044FB30B9062208F107019F
:202BD00004F1300017F014FB2468002CC1D135484268354800784FF4805113F027FD10B148
:202BF0008E200FF0ABFB86F4805045E0B00505D517F076FE2D4901200860FEE7700504D5C7
:202C100008F0DBFD86F4806036E0700405D581200FF094FB86F480402EE0B1042BD5244C7A
:202C3000206810B1002016F03DFE4FF0FF3020600020204C10F090FB216851F8202F684606
:202C500090471D49086B4A6B24681C4B0090019202936B46C86A1A4A0392ADF81000256836
:202C7000184A19491948A8471949086005F0F8FA86F4005000E0002009B0BDE8F08F00BF19
:202C9000B3290020C40B0020C80B0020204F0020A0230020B4290020684E0020B34B010002
:202CB00070290020784E00206E4F0020FC002043044F0020F04E0020500900203DA70100FA
:202CD0004DA7010094270020280D002088490020EC4E0020F0B5B24CB2492046ADF14C0D79
:202CF00012F0DCFDB04D0021284618F09DFAAF48B0490560AE480DF0C3F8AF4988A608602D
:202D100070B900200090019040F2562102900322039087A3049030460CF0DAFA18F080FAC0
:202D3000A648A7490DF0ACF8A64D286078B900200090019040F25E2102900322039085A3F4
:202D5000049030460CF0C4FA18F06AFA28689E4917F0D8FD70B100200090019040F26521C6
:202D700002900322039083A3049030460CF0B0FA18F056FA00250D200095944E0190954894
:202D900032222B46314612F0A3FA91490E2732222B460860914800953146019712F098FAFB
:202DB0008D498F4F15232A46086010208D4900970FF08AF88C49102002232A460FF084F80C
:202DD00011A8009001268DF844608DF845604FF480628DF84650854F8DF847603346102037
:202DF00039460FF071F80DF1450040F2024200903346394610200FF067F80DF14600009039
:202E1000394640F20342334610200FF05DF80DF14700394640F206423346009010200FF039
:202E300053F8734910204FF0FF320FF04DF8714910204FF0FF320FF047F816F0D7F9207891
:202E50000EF084FB20780AF0C7FC20780CF03EF969480BF01FFE69480BF002F968480BF0AA
:202E7000ABFC05A8294628220FF026FB65490FA80A684968026005AA41602846314606F000
:202E900039FD304605AA014606F034FD2846314605AA02F079F9304605AA014602F074F996
:202EB000284608210FAA04F0CBF93046142105AA04F0C6F95449554A10200FF005F82178EC
:202ED000502015F0C9FF5249024610200EF0FCFF2178502015F0C0FF4E49024610200EF0BF
:202EF000F3FF4D491020FB2240F648030EF0ECFF4A4910200EF0E8FF4FF6FD7016F010F81B
:202F10002178502015F0A8FF0095034604224449019510200EF0D8FF16F0C2F913B0F0BD8F
:202F300070726F6A6563745F7A65726F2E6300C04572726F7220696E697469616C697A69BA
:202F50006E6720626F617264204C45442070696E7300C0464572726F7220696E69746961E7
:202F70006C697A696E6720627574746F6E2070696E7300C04572726F7220726567697374A6
:202F90006572696E6720627574746F6E2063616C6C6261636B2066756E6374696F6E00C0BD
:202FB000B8270020BC270020B8280020C0270020E82800209C0D0020CC270020C4280020E0
:202FD000780D0020C8270020D1F80000990A0100D02700204C270020D42700207027002044
:202FF000280C0020E949010061800100B5600000F9940100D5990100200E0020100E0020BA
:20301000180E00209CC30100DD9B0100080E0020518801103181011021B10010E1100100CA
:203030007D7B00002DE9F04F09AFADF13C0D08900A92388809911E46ADF81800101C08BFF2
:20305000002000F07581017800274FF0010B401C4FF0FF39B846DA460A9061E1252940F024
:2030700056810178401C0A902D2918BFADF8068004D10178ADF806B0401C0A9030291CBFCF
:203090004246434604D10178401C5A465B460A902A29CDF800804D4617D1049330680A9BA3
:2030B000CDF80890C01C20F00300001D306050F8044C1978002C009403F101000A9018D5A2
:2030D000ADF806A06442009413E044460AE0600000EBC4004018A0F130040A980178009419
:2030F000401C0A90302901DB3A29F0DBCDF8089004932E2929D10178401C2A290A9011D17E
:203110003168CDF80880C91C21F00301091D316051F8045C002D48BF454601782B46401C5A
:203130000A9011E0454643460AE0680000EBC5004018A0F130050A9801782B46401C0A903E
:20315000302901DB3A29F0DB02930AB1224604926C2904D04C2918BFADF8048004D1017882
:20317000ADF804A0401C0A900BA8CDF80C800FAB07906429059300F0828069297FD0BDF8FE
:2031900018C075296DD0782969D06F2965D070294ED063293ED0732922D00A98401E0A904C
:2031B000099801281AD966490C68B5F1FF3F03D0A84288BF6D1C05D86FF00041814294BF1B
:2031D0000D1C099D029508A80AA932466B46A04709993F18091A0398099165E0454617E0EE
:2031F0003068C01C20F00300001D306050F8040CBCF1010F014608B94FA00146079117F099
:203210007FF90390B5F1FF3F4FD0A8424DD9039528464AE03068C01C20F00300001D30601C
:2032300010F8040C8DF82C005D46039558463CE0082035680490E81C20F00300001D3060A3
:2032500050F8041C082210230FA80FF067FE401E079040210170079823E0082302E01023D5
:2032700000E00A233068C01C20F00300001D306050F8041CAA42BCBF2A1C04920DE03068CD
:20329000C01C20F00300001D306050F8041CAA42BCBF2A1C04926FF009030FA80FF03EFE7A
:2032B00007900599081A0390009C241ABDF8065000945DB906E008A8202109AA15F08EFD6B
:2032D0007F1C009C641E0094F5D50398401EB0F1FF3F03900FD1BDF8060001281CD1009813
:2032F000401E009018D408A8202109AA15F076FD00987F1CF4E70798017809AA08A815F03A
:203310006DFD0798401C079003987F1CDEE708A809AA15F063FD7F1C0A980178401C0A9032
:2033300000297FF49BAE089808B14146017038460FB0BDE8F08FC046286E756C6C2900C014
:2033500030C401002DE9FC47B14CB24D2678DFF8C882B24FB249002E4FF4A05900F0188165
:20337000072E14D0092E18BF0A2E00F013810B2E18BF0C2E00F022810D2E00F0E580112EAE
:2033900055D1A84A107800210AF0BEF9002871D0C5F80080426D5378016DA34CDFF88C8249
:2033B000DB0657D50B4641F2044EB3F802C0F4451FBF5E8B7645B3F832A0F24506D041F235
:2033D0000A4EF4451CBF7645F24502D1A7F800E048E000244FF480664FF0180C0CFB04FC4E
:2033F00003F1020E3EF80CE0A7F800E01EF47F4FF2D0BEF1020F40F20581BEEB060E17D05A
:20341000BEEB060411D04FF44066A41B01D0A41E012C40F2DD80241FFBD040F2FA36A41BE2
:20343000E9D0641E00F0E680E11E00F0D980A7E0B3F800C040F6010EF44540F0C980641C3A
:20345000022CC9DD57E0981C20F80C900FE001680A710CE0488E388041F20441401A01D0F9
:20347000801F01D12C6046E041F206403880C5F8008040E06E498978FF2911D0C5F800808D
:2034900008461C226B4B50431A68941C235A3B8013F47F4FF4D040F204441B1B012B6649B9
:2034B00076D94FF47F741B1B15D00A3B012B17D940F6F6341B1B032B84BF5B1F012B12D963
:2034D0009B1E012B64D940F2FD341B1B0BD05B1E012B05D909E0921C41F20143135202E06E
:2034F000941C24F80090296005E0002016F0DAF98520FDF737FDBDE8FC4750480078012112
:2035100009F002BC4E4C4F4A25684F4800680023CDE9002355F8089F4C4B0222C8474C49D6
:20353000088035E0092E4ED14A490A685089002849D04949087811F0EDFC0021002017F025
:203550006BFE0020207023E04888388002280DD940F20442801A1BD040F6FC72801A05D097
:20357000083815D04FF47F72801A2CD1887B801CC2B2B52AA8BF662088730020488007E0A2
:20359000002016F08FF98420BDE8F647FDF7EABCBDE8F3874888388010F47F4FFAD040F2D8
:2035B0000442801AF4D040F6FC72801ABAD00838EED04FF47F72801AA4D004E048883880E3
:2035D00010F47F4FFAD0002016F06CF98520DBE7807B012818BF042801D0A7F8009046E7F9
:2035F000807B01287FF42FAF981C41F2024120F80C103CE75278D00647BF0022886D0022E6
:20361000C86E24E7002016F04DF98320BCE700BF6F4F0020204F00206BAB0100504F0020A5
:20363000F8270020B3290020A90800008D5A0000684E0020542900201D4500006E4F0020F5
:20365000F04E002002000080EC4E0020D5640100424F00205C290020714F0020BB482DE997
:20367000F84F0025BA4CB849056094F8E200002800F06581012800F02F81B64E02283CD0F3
:20369000032840F05C8151F8250CD4F8B8100029A0F5C060C4F8D400B8BF49420028B8BFC5
:2036B0004042814226DA4FF08057D7F8A4014568B4F8BC0030214FF47F4208230090304690
:2036D000A847D7F8A4014568B4F8C00004214FF4F802122300903046A847D7F8A401B4F8B2
:2036F000D070456820214FF440620A2330460097A847012584F8D8501CE151F8258C17F0B6
:20371000EFF82F4600B901273946934F38680028FCD0B146012609F10409D9F82CA03E6007
:2037300009B117F0E3F8CAF30720C4F8BC0017F0D7F8AA4600B9B2463B68002BFCD0D9F89F
:2037500000B0BAF1000F3E6001D017F0CFF8CBF38440C4F8C00017F0C3F8AA4600B9B24651
:203770003B68002BFCD0D9F81C90BAF1000F3E6001D017F0BBF8C9F38120C4F8D000B8F5A9
:20379000C061C4F8B81000F09C8094F8D80068B9C4F8D410D4F8C000C4F8C800D4F8BC703B
:2037B000C4F8C470D4F8D030C4F8CC30D4F8D400D4F8BC30002854BF02226FF0010204F177
:2037D000C8010F6800EB40008018421000EB927207EBA2000860D4F8C810C4F8C43000291C
:2037F0001CDD1E293CDDD4F8CC0030B93429B4BF15391E21C4F8C81025E02A29BABFD4F851
:20381000C8000B381E20C4F8C800D4F8C4003F28B4BF401C3F20C4F8C4001FE0D4F8CC008F
:20383000032812D011F10B0FC6BFD4F8C8000B30301CC4F8C800D4F8C4000028C4BF401E92
:20385000051CC4F8C450032508E011F1150FC6BFD4F8C8001530301CC4F8C800C4F8CC502B
:203870004FF08057D7F8A401B4F8C43030214FF47F424568374800930823A847D7F8A4016C
:2038900004214FF400321123456832480096A847B4F8C860D7F8A40104214FF4F8021223BF
:2038B00045682C480096A847D7F8A40120214FF440620A23B4F8CC60456826480096A84713
:2038D00001E084F8D85040F2FF50404502D8801C40452FD2082030E051F8251C1F4F4BF2E4
:2038F000F5204843060A3868C0F3814001280CD11B4800680068804713F024FD16F0FCFFCF
:203910003111C010484306EBE03694F8E50030B91448006820F07F403618760801E084F8DD
:20393000E5501148310C0660012741600F4D8760287808B90B2000E0052084F8E40005F054
:203950007BF9BDE8F88FC0462D400C402C500C404C04002000A00C4000800C40B43F0050C5
:20397000EC010010102009403C600C40DDC10100C2480278112A00D070472DE9F047C04A9D
:203990001078002109F0C0FE04000AD1002015F089FF002015F086FFBDE8F047FF20FDF792
:2039B000E1BA04F14C0898F8000008B90121E172451C88F80050E9B2E07DD8F804908142FD
:2039D00009F1400A24D299F80E00401C89F80E00D8F808104A7AD9F80810520802F001022F
:2039F00082F00102101889F80E00A08B01EB8001C9F80810627DD30609D5628B98F80030D7
:203A100000FB1320C03001EB8001CAF8201032E104F1280609F174074ED1A07F3875E17F23
:203A30007975D8F808205278930710D5E27FD30604D5C01E387501F0EF0179750020386022
:203A500089F873000022797D01F0FE010EE1910607D4F08B00B1F07EF875F08B00B1306A2C
:203A7000F861D8F808004178C8070BD5F18B00291CBF306A002805D0F861B07E884238BF3E
:203A90000146F975E07FC1060CD5D9F83800317800EB8100C9F83800A18CC03100EB8100B9
:203AB000022101E000200021386089F873100022E17F01F0FC01D9E0D8F808104978CA0772
:203AD00016D5787D397D00F0F700891E01F03F0182075CBF891D40F00200420644BF491E53
:203AF00000F0BF00787539750020F861F875C2E0A28C2D1AD9F838008907EDB200EB8200CA
:203B100075D5012D41D1C9F83800A07F00F03F00A0773875801EE17F7975387501F0F7017E
:203B30007975D8F8082053785A0704D5801F387501F0FD01797500233A7DF17E9AF8000086
:203B500002F03F028A18521CC0F3800192B200F0030013F05FFD00F5FA70A0841E21A08C5A
:203B700090FBF1F18AB2797D01F0FE01204609F065FF002189F87310F08B00B1F07EF875B7
:203B9000F08B00B1306AF86175E0022DC9F8380026D1E07FC10706D5387D811F3975787D88
:203BB00000F0FE00787500233A7DF17E9AF8000002F03F028A18521CC0F3800192B200F094
:203BD000030013F027FD00F5FA70A0840022797D01F0FE01204609F031FF707FAAF81A00E6
:203BF000707F401C451BE8B2012812DD07E0C9F83800E17F707F451BCA06E8B209D5A28C53
:203C1000D9F83810C03201EB82013960022189F8731080B3F969F27EE37FA57F0A44590820
:203C3000FA614FEA410AD8F8081049784A0748BF2AF0020A890748BF2AF0080A012807D1AA
:203C5000307FF875002139602AF0100A89F87310504614F081FB05F0C00500F03F000543FF
:203C70003D7587F815A000220AF0FC012046BDE8F04709F0E3BEBDE8F08700BF6F4F0020A0
:203C9000B32900202DE9F84306460D46707801071DD4D6F80310B44821F07F41203981427D
:203CB0003FBFD6F8061021F07F412039814228BF112033D2B01DF11C88425CD3B07A0028E3
:203CD00018BF012803D0022818BF032853D1B07C002818BF012803D0022818BF03284AD143
:203CF000307D012818BF022803D0832818BF032841D1707A10F0070070723CD030780121A2
:203D100009F002FD04000AD1002012F075FE044616F080FF844214BF07200D2021E104F174
:203D3000540100200E606072227A012A08BF0C20F4D0E075727A012383401A4208D0E27D85
:203D5000521CE275D2B2012A04BF00F125022276401C0328EEDB7078C20619D5317D0129A6
:203D700009D1102811D012280CD0132804D0152804D01D2804D09FE0002007E0042102E064
:203D9000012003E00221A17360E00320A0735DE0FF22A273307D02281EBF727802F003005C
:203DB0000328E8D01307E6D408B19006E3D4520707D516F10C00DED0F07A002818BF0128AE
:203DD0007AD100206075E077707810F0030F26D1207D00F03F0020757078820605D44868F1
:203DF000002804BF8868002801D018216175707881060DD4307D832818BF032804D1182019
:203E100001216075E17703E0607D40F0010060757078410716D5E07F40F0020011E0217D42
:203E3000C0074CBF0120022001F03F0141EA80112175182060750921E1777078410701D545
:203E50000B20E077207D00F0C000A07796F913007F2806BF4548007810F0D8FF04F129075D
:203E7000387045B14248416B48693978026801EB4101505C2870B07ADFF8F880DFF8F89048
:203E90003E4D002818BF012809D17875B07AC10758BFC8460622414604F130002FE005F1A8
:203EB0000D0017F0CDF9B8B1B07AC10754BF4946414616F04DFA08B9122052E0B07AC10730
:203ED00054BF49464146062204F1300016F090F9B07A00F0010006E00622E91D04F1300079
:203EF00016F086F903207875B07A00F001002870B17AC80758BFC84606224146681C16F012
:203F100077F97078410729D5B07A022818BF03281BD1F17A06F10C0201F0010128460FF0E1
:203F30009DFEFF2811D01E214843054405F10D0017F086F948B9E91D05F10D0017F078F9B0
:203F50000120B8750622E91D04E0F07AB875062206F10C0104F1380016F04AF901206072C5
:203F70000020BDE8F28300BFE0FFFF00714F0020B0CF0100344E00202C4E0020A0230020DB
:203F900080B54FF48862224922480CF0EFF9224800210170012202230272437603221F49F8
:203FB00004230A70CB700521417706201C4A107007211C4808230170037201BD2DE9F04189
:203FD000194A1A493820136854689568D6681769D2F814C0D2F818E0D2F81C800B604C60E4
:203FF0008D60CE600F61C1F814C0C1F818E0C1F81C8020322031401EE5D1106853689468AD
:20401000D26808604B608C60CA60BDE8F081000070CB01004804002151030021C103002114
:20403000740300219803002160C4010000C000212DE9F047DFF8A0916849694E89F80000D8
:204050000922002008600D2366484FF48B7102704380818064480660B77E64480770FF2FB2
:20407000F17E417008BFFF29327F8270737FC370B57F0571F67F467114D1FF2A08BFFF2B84
:2040900010D1FF2D08BFFF2E0CD159490A7802704B7843708A788270CB78C3700A790271C6
:2040B0004979417153490278534D544EDFF850810A7043784B7082788A70C378CB700279A7
:2040D000504B0A7140794871FF2028706870A870E8702871687100204B490880776B4B4925
:2040F000787808703A784A491A70B87808707A691079484A411E1170F878474988F8000073
:20411000B869086008B915F0CDFBF869434C206008B915F0C7FB2068DFF804A10168884744
:20413000226852F8041F504688473E483E49CAF82000CAF82410386A3C49086008B915F0D9
:20415000B1FB786A3A4C206008B915F0ABFBB86A3849086008B915F0A5FB06F069FB072855
:204170000CD10AF0ABFE99F800004FF4804108F0CBFDBDE8F047002015F094BB2E4801682B
:2041900088472268074610688047216851F8042F00209047F16898F800000A88274B2849D0
:2041B00002431A8038460A6890470C21254817F02FF8284617F028F817F022F84FF6FF7215
:2041D00021488280002101604FF4005199F80000BDE8F04708F098BD6E4F0020044F002044
:2041F000B63F0050604E0020084F00202C4E0020E81200503C4E0020344E0020B0CF010075
:204210006C4F00207B4F00200C4F00206D4F00206B4F0020724F0020F04E0020F44E0020F7
:204230007C4B00206DA701008DA70100F84E0020FC4E002064290020C40B0020544F00200E
:20425000C80B0020F84D0020102900202DE9F84FDFF8B4920F460446F80B80F00981A54E94
:20427000DFF88482B80F80F0BA80B80880F0AE803809C0F02F81082016F056FB002840F00A
:20429000A080802016F050FB002840F09A8068460BF082FF012803D10098002800F09180A3
:2042B00090480078002840F08C8000250124E8B216F0E0F848B1837A3BB1847290F909000E
:2042D00004FA00F0C0B213F041FE6D1C032DEED345460320287405F1AC0016F05BFC83489E
:2042F0000168002398461A46036050F8081C804940F8088C05F1340016F062FC404607F075
:20431000D0F83068006B8047A968401A010BA869C1F1FF3282422CBF08444FF0FF30A8611E
:20433000287F20B1E868A969B1EBC02F25D915F069FA414600B12146081C1BD06E4840F608
:204350000901018043464380417B04F00F0221F00F010A434273017B03F00F0621F00F01ED
:2043700046EA01020273436016F084F9418811F4406FFBD02C774346AB6113F001F85F483C
:20439000444641460460022014F078FF022013F0A9FD112009F020FF287818B9686838303E
:2043B00016F022FC5648007810B90E2009F014FF687F18B16C77052013F094FD5148686102
:2043D0002C740FF0A3FE27F0080783E007F0D4FD45467435286808B927F002077AE016F037
:2043F000E5FBB3468246DBF85400016804208847D8B1207CC8B1454608352868A8B10646EE
:20441000DBF80000E568006B8047801BE060000BE060A84202D240194008E06040F6C4116A
:2044300081422CBFB0F5FA7FE160504616F0E4FE13F0C0FA90B1A56920466FF480710022F9
:204450004FF00073A847464606F16C052868002808BF47F0020701D00FF058FE204664699F
:2044700000214FF080630A46A04727F0005731E016F09CFB49460E6846B306F1280106C9A9
:204490000A234FF0E0450B40154008BF002B1DD106F1280191E8300006F1280393E806008F
:2044B00006F12803AA43A14383E8060016F0A4FEB16869B1002D08BF002C09D030692246B3
:2044D000B6F93C10B4682B46A04701E016F094FE27F4804727B148463946503016F090FB0C
:2044F000BDE8F88F911D0020F81B002014100440094701008C010010142800200000046069
:204510004EC30100D9D30000781C0020A2488078FF2800D170472DE9F84F15F0C9FF054613
:2045300005F217100178012908BF417800F0A78005F17400817B022903D105F17401002023
:20455000887305F59274E18911B1207B08F0DCFB6889DFF848C2DFF8489228819CF80720D3
:204570009CF80A009CF80C109CF80B709CF80D3000EB02088844B84405F58D779844BB8823
:204590005B1CBB803E8846443E80B7F802E08644A7F802E04FF01C0E2368E3B1D9F80060B6
:2045B00095F806B006F10E0A0EFB0BFB0E361AF80BA033F81AB0C34423F81AB095F806A075
:2045D0000EFB0AFA16F80AB003EB4B06B6F84AA08244A6F84AA0002A04BF9CF80B20002AFB
:2045F00005D1002904BF9CF80D10002926D02989E88941180026A9812E74287F012804BF18
:20461000688CE8839CF8010068B10121297705F174018878002804BF887B002803D1087FDF
:2046300008B9688CE883207D002832D0022804BF9CF80B00002827D1002129E0EA8340B14F
:20465000297F012600200129287406D1688CE88303E0F888401C0226F880A889298981425A
:2046700006D08842CED2081A41F2AB029042C9DA287C08B1052901D0082100E03E21284641
:20469000BDE8F44F15F027B89CF8090008B10221217544489CF80F2001682868D30709D52F
:2046B000DCF81020C26001F11400A97949010022425010E0AA791431520189582161D9F8BF
:2046D0000020A97902F108030EFB01F15A58C2600020E8832877344841690A78900703D57A
:2046F0009CF80E00802800D1812005F1740A8AF800002846FCF714FE01284AD001212846B2
:204710000DF050FF284614F05DFDFDF7C9FA01283FD000F07DFFDFF89490D9F80000C0B3D7
:20473000B9F80400AA7990421CBF4FF6FD7188422FD11F48007A16F019F8040029D02670DC
:20475000A879608095F83910217195F8960160719AF90010A171A4F808807888608115F02C
:20477000F5FF050005D1FF204FF0FF312073216109E02878207316F06FFD0146A86816F0CC
:2047900037FD800820612046D9F80010BDE8F44F0847BDE8F18F00BF684E00205C4D0020CB
:2047B0005429002058290020B0CF010010290020B40D00202DE9F04F8946804609AF99F8BE
:2047D00000003E791C4600254FF0FF0AADF11C0D02283F88059206D1D9F80400008842F688
:2047F000021181426CD0484610F0B8FF58A3069008B3401E0ED028460090019040F249219F
:204810000290032203904BA3049046A00AF060FD0A2083E05FA00090CDF804804FF4117155
:204830000294012203973FA004960AF051FDDFF818B214200FE059A00090CDF8048040F28C
:20485000352102940122039736A004960AF040FDDFF8F8B12820B84214DD3E19B0420BDB16
:20487000D9F80C0005992246C0190BF07FFDDDF818A0ABF8006013E028464FF4157149A34F
:204890000D2504E0284640F24F214FA3072500900190029003900322049022A00AF018FDF4
:2048B000BAF1FF0F0AD06748006838B106682EB10699059BE4194046A2B2B04728462DE080
:2048D000FE2E0CBF49A650A6484610F047FF00904FF40571CDF80480012202964DA3039543
:2048F00010A004950AF0F4FC009703200190059A23464946404610F015FC064651480768A8
:204910005EB957B1786840B1484610F027FF2246059B7C6801464046A047F0B207B0BDE845
:20493000F08FC046646174615F736572766963652E6300C0417474726962757465207761FB
:2049500073206E6F7420666F756E642E00C046C05772697465417474724342203A202573F6
:2049700020636F6E6E48616E646C6528256429206C656E28256429206F6666736574282506
:204990006429206D6574686F64283078253032782900C04653747265616D00C0537472690D
:2049B0006E6700C0496E76616C69642076616C7565206C656E6774682077617320726563E7
:2049D00065697665642E00C0416E20696E76616C6964206F6666736574207761732072650D
:2049F000717565737465642E00C046C02D20726573746F72696E6720626F6E64656420736F
:204A10007461746500C046C02D204F5441207772697465005772697465417474724342204B
:204A30002843434344293A20706172616D3A20256420636F6E6E48616E646C653A202564BD
:204A500020257300900D00209A0D0020960D00202DE9F04F8246DAF80070DAF804600C4660
:204A70005FEA0208ADF11C0D14BF00214FF0FF31DFF84492484615F081FD002818BF0B20C1
:204A900040F01681002590488D4905708B48FC60524616F095F8317B272016F093F8B8F170
:204AB000010F07D06570022013F0D0FC062013F0CDFC01E0012060702078012840F2AB8057
:204AD000801E012868D9801E012833D9801E012800F2DF8016F06AF883464FF0805000F59E
:204AF000EE77D0F8DC01A378466A009321782846062908BF0120019001200290A068228A28
:204B1000E1686368B0478146584616F075FBB9F1000F40F0C080B8F1000F02D015F008FBE4
:204B300002E0504613F060FA002800F0A4803868806A2AE016F03AF883464FF0805000F5BB
:204B5000EE77D0F8DC01012306680093A168A27860682478AC46042C08BF9C466346B04724
:204B70008146584616F048FBB9F1000F40F09380B8F1000F02D015F0DBFA02E0504613F09C
:204B900033FA002877D03868406880474D49C1F8B0510D6081467EE016F008F883464FF06A
:204BB000805000F5EE76D0F8DC01E38A87690093E0680190208B0290A0780390207D049035
:204BD0000121059122782846022A08BF081CE1786268A368B8478146584616F00DFBB9F1A4
:204BF000000F58D1B8F1000F02D015F0A1FA02E0504613F0F9F900283DD03068006A8047D8
:204C10005FEA000947D13068C569A168E28A2369E078A847BEE715F0C9FF83464FF08050C2
:204C300000F5EE76D0F8DC01E38AC7680093E0680190208B0290A0780390207D29460490D6
:204C500001200590257805B9014608466268A368E178B8478146584616F0CEFAB9F1000F85
:204C700019D1B8F1000F02D015F062FA02E0504613F0BAF908B914201AE03068406980472A
:204C90005FEA000907D1306802692169E078904780E74FF0FF39B8F1010F05D0022013F08D
:204CB00021F9062013F01EF9034815F09DFF484607B0BDE8F08FC046180800205008002077
:204CD000198E010050450240A92900202DE9FC47040048D0DFF82C9299F80000092818BFB0
:204CF0000A2804D00B281CBF0C280D2801D1212006E1A078002108F007FD050008BF4220CA
:204D1000F6D0A0788049087005F14806F068417801F01201022902BF706900280C2012D010
:204D3000687A00B3A87B012804D1B4F8030008B1812818DA6078402815DA28460BF064FBB3
:204D5000B06808B90720DBE0B46105F122072078012819D1A87B00281CBF0128042813D14A
:204D70006A48007808B91220CAE069494A78824208BF0920F8D07A7F05F13801802006F0AE
:204D90001DFD08B10B20BBE0607808B91120B7E02078DFF880A1012878D1287A002101281B
:204DB00029734FF00A0811D19AF80000402112F0DDFFB4F8030008FB00F1402014F004FB3D
:204DD000010015D1B1696079487198E001202872E97269730AF060FF68604F494161F06813
:204DF0004178C80605D5284601F064FB01000BD086E00020388015F089FC85F821002846D4
:204E1000FDF794FB01007BD1F0684178C8071CD505F14207B98800291CBF3068002814D0B9
:204E30003A788A4211D20F2014F094FF68B1F06801788DF80010B888ADF801000F203978F6
:204E50008DF80310694614F04DFD99F80000002855D13249087800281EBFF068417811F0BC
:204E7000030F1CBF2E4814F037F9112089F8000001212972B4F8030008FB00F1402014F015
:204E9000A3FA01003CD100F0C3FB38E0287A002836D02448244E0168884704469AF80000CF
:204EB000402112F063FF0020287215F097FD012804D015F04BFC6968884217D11B4A1C4835
:204ED0001368006853F8385F0021A84740F2014016F0BEF917491848086001219AF80000E1
:204EF00007F012FF31682046884708E0284613F03FFE316820468847284615F00FFA0020CC
:204F1000BDE8F6876F4F0020B22900207B4F0020684E00206E4F0020A95E0000784E0020FC
:204F3000CC470020C40B0020C80B0020F04E0020EC4E0020204F00208D5A00002DE9F24FC7
:204F5000054684B02868D0F80490D9F8080016F04BF9002805F59A7B40F0058128680169CC
:204F7000049816F045F905F1820680463078002805F12E0440F6C41A00F087807088298950
:204F9000401E80B216F080F90746307802280CBFBBF83000A0887843009028680169009820
:204FB0000AFB0011049816F01FF9002868D07F1C03973078009F039A02280CBFBBF83000C0
:204FD000A088C71900230AFB07F0029201930090296809694118049816F006F990B100980C
:204FF0003189A8EB00080AFB01F0B8FBF0F200FB1288B8F1000F18BF521C5143019103996D
:20501000521802922989029841186981F18801983278CF19C719012A48D105F18601284640
:2050300014F070FC7089688400212977E983E88969894118A9813289A188B0898A4204BF4C
:205050002389984202BF7189E388994207D0000900907389A9795208002016F01DF9A0886D
:20507000ABF83000317921703089A0807189E180B0892081284614F07BFE0220307015E062
:205090003178012918BF14F00DFCA08829890AFB00F0B8FBF0F700FB1788B8F1000F18BFB7
:2050B0007F1C79186981BFB2A08847432968344A08690AFB0700C9F808000B78802B10D143
:2050D000C860D2F83080A388D8F8000043436420B3FBF0F3D9F814000AFB03F3A3F5966317
:2050F00043610B78402B36D1AF614FF4C873688A4743B7FBF3F0401C6861D9F80830181A08
:20511000C9F808006B69DBF8000000EB4300D9F8143058611B4833780068022B0CD1AB796F
:205130005B0100F1140656F803C026780AFB06CC00F1140646F803C0AB79126B00EB431681
:20515000A388106843436420B3FBF0F30AFB03F0A0F59660F061D9F8080088602846E17AA3
:20517000A17212F093F86989A88916F08DF8E989814238BF0120ABF82E0005B0BDE8F08FDA
:20519000B0CF0100582900202DE9F04F0F4601468548D0F800B0854805684DA39246002482
:2051B0000FF2F009ADF1140D081C22D0401E0ED0009120460190032202903BA3039040F2F2
:2051D0004D11049048460AF083F802205FE047A000902646019740F249110296012203960E
:2051F000484604960AF074F8DFF8C481714E5D460FE040A00090264601974FF49F71029645
:2052100001220396484604960AF062F8DFF8A8816A4E022F2CDA002F2AD0404651463A4691
:205230000BF0A4F83780A878002808BF33A103D001280CBF38A13EA12888264600900122DF
:20525000019140A302964846039640F25F1104960AF03EF807205A4F0090414622465A4BAA
:205270003878584F01902846029709F0B9FB0DE000970120019040F26D11032202903CA306
:205290000394484604940AF023F81824204605B0BDE8F08F627574746F6E5F73657276698D
:2052B00063652E6300C046C0536574506172616D657465723A20506172616D6574657220D7
:2052D000232564206E6F742076616C69642E00C0536574506172616D65746572203A202517
:2052F00073206C656E3A20256400C046425554544F4E3100425554544F4E30001B5B3333EE
:205310006D4E6F74692F696E642064697361626C65641B5B306D00C04E6F746966696361B4
:2053300074696F6E20656E61626C656400C046C0496E6469636174696F6E20656E61626CCE
:20535000656400C0547279696E6720746F2073656E64206E6F74692F696E643A20636F6E8C
:205370006E48616E646C652025782C20257300C04C656E677468206F757473696465206201
:205390006F756E64733A204C656E3A202564204D696E4C656E3A202564204D61784C656ECD
:2053B0003A2025642E00C0460C29002008290020E80E00208E0D0020BF0E00208A0D0020AB
:2053D000880D002029920000440700202DE9FE4F8A4C617811B9002014F064FA15F03CFF44
:2053F00006464FF0000806F6C4160027844DDFF8149211E0384615F05BF8417951B12A68AA
:20541000817902F8081008F101015FFA81F83146FFF794FD7F1CFFB299F800008742E9DB3B
:205430006178884505D0002014F03CFA8220FBF799FD6078012840F0C380002701E07F1C46
:20545000FFB299F80000874280F2B480384615F02FF8064670790028F1D02968B0790A7887
:2054700090421CBF002014F01DFAB079A0E0286810F8090015F01CF800684268DAF80810D5
:205490009068814204BF3E4609F1010900F0A680A8E0286890F800B001224FF4D0710FE0FA
:2054B000636803F5B176835C01FB03F901FB0BFE36F809C036F80E60B44538BF9B46521C44
:2054D000FBB29A42ECDB4FF6FF700DF0E3F80646584614F0EDFF4C490068D0F804A008682D
:2054F000D94630F8192060684FF4D07300F10E0103FB09F3C85AB2EBD00F52D2720840F662
:20551000C410424300920027404A0190029217E0584614F0CDFF01680A78802A03D1DAF81A
:205530001430009A5A610978402908D1029980790A6802EB4011009800F5A060C8617F1C6A
:2055500047452EDA2868C05D8345F8D001464FF4D073594363685A1803F5B173D289595A9A
:2055700053088B4202D2521A9045E8DA14F0A0FF01684A68019B9168DAF808207008A1F6C0
:20559000C41103FB002015F02FFE0028C0D01E48006830F81910491C20F81910286810F8C1
:2055B00007B01948026800215B4622F813105846BDE8FE8F002014F075F98220FBF7D2FC96
:2055D000617828680EF017FB2868007814F070FF00260068D0F804A04FF00109771CC145EB
:2055F000FFF645AFF6B2002E1CBFF8B200287FF450AF286890F800B065E700BF684E002014
:20561000004F00207B4F002068290020582900202DE9F84F894E716884B0009121B905B06E
:20563000BDE8F04F15F0DCBD0978DFF81492DFF81482854FDFF814B201291CBF022904299F
:2056500041F64C5A04D0402918BF802970D0EBE015F0C4F90028FAD00098007805F042FB9F
:20567000054615F01DF904469BF80100002841D0FFF7ACFE14F01CFF0290016800914968A1
:20569000019194B1009928460DF008FF02280CD029780129DBD118B915F0DEFD5044A06056
:2056B0000120B07011213970B8E00098017880290BD108203870019998F800204869012A9A
:2056D0000BD0D9F828100A780DE007203870019998F800204869012A02D10121C17203E067
:2056F000D9F828104A78C2720298817900988BF8021094E0002DAAD000992878A94208D1C2
:20571000012802D1002C03D194E0002014F0CAF884E001289BD1002CF6D015F09DFD00F5A4
:20573000C241A068A83115F05FFD002872D16DE09BF80100002859D0FFF748FE14F0B8FE81
:2057500004462068019045689BF8020014F0B0FE039015F049F910F0070F21D0B07805F0E4
:20577000C1FA009015F09CF80290C8B1019900980DF094FE022813D000990A78012A0CD139
:2057900028B915F069FD82440298C0F808A0112139700120B070009841E0002014F082F87A
:2057B0000398A04220D00199087880280DD10821397098F800206869012A02D10121C17226
:2057D0000FE0D9F828100A780AE00720387098F80010686901290EBF0122D9F828104A7830
:2057F000C272A0798BF80200019818E015F0FCF810F0070F1ED0B07805F074FA054615F05E
:205810004FF804462878012814D19CB115F024FD5044A060112038700121B170284605B0F3
:20583000BDE8F04F0BF09CBC05B0BDE8F04F002014F038B805B0BDE8F08F00BFF4280020A0
:20585000B0CF0100734F00206F4F0020684E00202DE9FE4F05467B48002400680094C009C8
:2058700005D37948007810B9202012F0C1FC012D40F0E280DFF80092D9F8DC00012840F010
:20589000D8800220C9F8DC0014F0E6FB012012F0AFFC5FEA000805D00120C9F8DC0014F046
:2058B000E7FBCBE015F0A8F9A34602906748684DC0F800B0A86A016801208847012804D1F5
:2058D00058460DF005FC012000906248624FC0F800B03868112015F021F800B101241020B3
:2058F00015F01CF808B144F002040F2015F016F808B144F004040B2015F010F820B12868BC
:20591000564E016B308888470A2015F007F820B12868534E016B3088884752480126066096
:205930002868816944F0200088474F48066014F0EFFF00F001010191400814D2286A81689E
:205950004A4888478246BAF1040FF7D0BAF1010F04D1286A42684548032190474449086838
:2059700020F003000860584600F090F92B683868986B8047019801280CD0BAF1010F04D15A
:20599000286A42683948314690473949086840F0030008602F480660286841692046884713
:2059B0000B2014F0BBFF20B128682C4BC16A188888470A2014F0B2FF20B12868284BC16A9E
:2059D00018888847274806600322C9F8DC20264BC3F800B02868416B204688470128F9D151
:2059F0003868042012F004FC0446184806603868144800688009FBD30098012802D13046FC
:205A10000DF066FB14F072FF082012F0F1FB07460298C9F8DC6015F0DFFB164800880DF0E7
:205A30002FF914F025FB57EA040018BF4FF0FF3804E06FF0040801E06FF001084046BDE8B5
:205A5000FE8FC04614100940340500200C400940B8010010000222432C20094078BE01004C
:205A700074BE010028200860800104430040034024220840D8C101004C0400202DE9F84FF3
:205A9000DFF8F4A19AF80000002107F03DFE040004F1500602D113F005FFDEE0207A30B93B
:205AB000204613F065F8204614F038FC1EE0207BDFF8C881401C20730121E1723069407903
:205AD000C0B1217B814215D198F80000402112F04DF900202072204613F04AF8204614F000
:205AF0001DFCFF22432120460FF0BCF9BDE8F14FFFF78EBD04F14509002089F8070015F0C8
:205B100067FBD6F804C027690146DCF803004FF00B0E20F07F4040F6C41391FBFEFE0B22EA
:205B300003FB007702FB1E1189B24FF47A604143306889B200F10805C9192960216104F125
:205B500022079CF80110CA0618D5A17B01290AD100202072204613F00BF898F800000221B8
:205B700007F0D2F865E090F8731001F0E00141F0860180F87310424941675AE0804600202C
:205B9000A8F8020008F1600B217EA971607DC10606D5618B2868C03100EB8100CBF800001B
:205BB00008F18800217D01700021627D4270C17081603888401C388080B214F0A7FD84F857
:205BD00021000022617D01F0FE01204607F036FF0020E882E17D6984688508F13E0094F88D
:205BF000211001F03F0101702A68618B02EB81022A630022028299F8001081837268517859
:205C10008A0709D5B98879800121A27F02F03F0242F08002A2778183E07FC10609D579887F
:205C3000286BC03100EB8100CBF8140002208BF813001449087880B1387F022818BF0328E4
:205C50000BD1114F07F10D0015F0FAFA28B90622F91D04F1300014F0CBFAFFF7D9FC4CB125
:205C70007068017E480605D55146BDE8F44F032013F038BEBDE8F18FB32900206E4F0020FC
:205C900000204E00784E0020A02300202DE9F84FDFF8F0B10746ABF13500DFF8DC9100681E
:205CB000800880F0D880704800680068804779490831D1F8008000254FEA28725FEA9851C7
:205CD00002F101020AD2C0F13E0110F10A0F4FEAE101D8BF08218A42B8BF0A1C634BD3F81B
:205CF0007C11C1F304611629A8BF20391B68C3F30443162BA8BF203B9A465118162905DA05
:205D100011F10A0FB8BF6FF0090100E01521584B584E01F01F0242F4F8521A80326812F051
:205D3000030F18BF0125D20828BF45F002050FB145F004054A4692F90730C31A052B04DA0C
:205D50009379AB4208BF918865D0DFF830E10F28A0F10F0C25DB0CEB0013A3F1F00C4FEA87
:205D70002C26072E88BF07263446062C88BF06245EF82470042303EB84037446E358DB1B8A
:205D900003F0FF04EF0824BFC3F307273C44AF0824BFC3F307473C446F0828BF04EB1364DD
:205DB00001E0002426465EF826E0EF080EF0FF0324BFCEF307273B44AF0824BFCEF3074715
:205DD0003B446F0828BF03EB1E63A4B2ACEB0626BAEB010104FB06F404F1800403EB142310
:205DF000D8BF0121342408F0FF074C437C43B4FBF3F14FF6FF738B4238BF191C802889B210
:205E1000918005DA10F1800FB8BF6FF07F0000E07F20D07195711A4800681F2910604FF016
:205E3000000008D340F2FF128A4206D24908401C8A42FBD301E01F219180134F0F3909095B
:205E500040EAC10047EA0001CBF8FB1F0026CBF8FF6FBDE8F88F0D490D4F4A4608200F60DC
:205E7000921D1070BDE8F88FEC0100103C1100506E62084024220840202900209C1300500F
:205E9000082009403500094000E7A48030100940FDFDA400AC3F00502DE9F84F7E4A8346A8
:205EB0001078002107F030FC9BF80010044601291CBF002013F0F6FC14B9002013F0F2FC21
:205ED00004F14C064FF47A67B0684178D6F804A0C8064FF00B0841F64C592CD50AF1780094
:205EF000002101808170C17001714171C18001818172C172C160A07B01281BD015F0ACF9C7
:205F10000AF108054844296815F06EF9002811D015F0A2F94844286015F05AF90B2290FB13
:205F3000F2F2296808FB12081FFA88F007FB00172F60276183E00AF174010020088400225D
:205F50000AF19600027042708270C2708280C28002724272CAF8A0200AF1080515F07CF9E8
:205F70002968484415F040F988B115F075F94844286015F02DF90B2290FBF2F2296808FB9B
:205F900012081FFA88F007FB00172F6027610AF14007607DC1064FD5287AA27D521CC0F32A
:205FB0008001002392B200F0030011F033FBA0831E20A28B02F5FA731E2193FBF0F001FB2C
:205FD0001030C0B208B1C0F11E009BB28C46801893FBFCFC00F5FA7002F5FA7201FB1C312F
:205FF0006083A283C9B209B1C1F11E018A18A28380B2E17D491E92B202FB01026283608BB1
:206010002A68C03002EB800139620220F877618B02EB81022A63287A18B9397809B120323B
:206030002A63A18C286BC03100EB8100CAF8740002208AF8730002E000213962F977616882
:206050007068164A8A614860B2685078C3065CBF102088615078830703D5886940F4002017
:2060700088610F4B187800281CBF507810F0030F03D0886940F4802088610020B168307006
:20609000087E10F0300F04D05846BDE8F24F10F03DBABDE8F18F00BFB3290020020000807A
:2060B000784E00207FB5804D03461446084600261946A1F58062132A04D9183A33D0921EDC
:2060D00022D015E0DFE812F0E4001400DD00D600CE00C500BE00B9001400AE001400140061
:2060F0009D009200140014006B0052004B003700092907DA022805D10846218811F0A8FF48
:206110000646CDE00226CBE0002840F0C88015F0B3F830B90DF02EFA0646502013F03AFF4D
:20613000BEE00C3587E0012840F0B980002C00F0B6800D3584E0602800D13CB9012840F0D8
:20615000AE80002C00F0AB80093579E005F178002146602214F04CF801206872A0E00128E0
:2061700040F09D80207815F02FF899E0012840F096802078022800F39280002800F08F8028
:206190002B4603F1080108702078022818BF301C02D11020D871012015F012F880E0072819
:2061B0007DD1611C01A8062213F048FE33460093217801A803AA07F0B1FFA8B915F05CF88E
:2061D00050B99DF80C0006F03FF80646502013F0E1FE0FF025FE63E09DF80C002A460121A2
:2061F00002F1200529545BE0342659E0012856D1A87A21780028A97252D1207801284FD1DA
:20621000E7E7297A01284AD1022904D02078072801DB102804DD022941D1207810283ED1E2
:20623000E8713DE000283AD115F026F810B914F06AF8CAE70B3501211AE001282FD1AD1D53
:20625000217815E001282AD12178022927DA6D1D0EE0102823D1284621461022383013F0A1
:20627000C7FF1DE001281AD12178022917DA2D1D297015E0012812D1217804290FDCED1CE4
:20629000F6E701280BD12178022908DAAD1CEFE7012804D121780229D8BF6D1CE8DD1826E2
:2062B000304600907FBDC04660050020F8B57F4F04463868C16E0025002940F0F38010204C
:2062D00014F04CFA39680028C86600F0E9808E6E1022214613F08CFF39680878002840F078
:2062F0009080C86E00F10C02D6F8980092F800C000F001030CF0010C634518BF00234008B2
:2063100043EA4000C6F89800C0F34003D2F800C0CCF3400C634506BF430803F0010300234D
:2063300020F0020040EA4300C6F89800C0F38003D2F800C0CCF3800C634506BF830803F082
:206350000103002320F0040040EA8300C6F89800C0F3C003D2F800C0CCF3C00C634506BFF7
:20637000C30803F00103002320F0080040EAC300C6F89800C0F30023D2F800C0CCF3002C82
:20639000634506BF030A03F00103002320F4807040EA0320C6F89800C0F34023D2F800C012
:2063B000CCF3402C634506BF430A03F00103002320F4007040EA4320C6F89800C0F3802311
:2063D000D2F800C0CCF3802C634506BF830A03F00103002320F4806040EA8320C6F898008D
:2063F000C0F3C0231268C2F3C022934206BFC20A02F00102002220F4006040EAC220C6F82B
:2064100098008A6E92F89500030718D5C86E4368C3F3C00098B1C87840F00800C870D6F8A8
:20643000981023480140C6F898103A68D06EC16821F48071C16049084900C16003E092F83A
:20645000330001282AD0607800281CBF7178002908D13968CA78130708D5002804BF707863
:20647000002803D03868052101711CE06068C0F3800040B996F8950010F0040002D10120CE
:20649000087110E00AD00878002819BF307821783178207814F090FE054604E0182502E0C7
:2064B000132500E011252846F2BD00BF304F0020FEFEFFFF2DE9F0475FEA000A04BF002086
:2064D00013F0F0F90AF1500700243E68DFF8C881DFF8C89179684A7A182060430123351863
:2064F000A3401A420AD09AF80E1039F811002880002118F80420AA73E97302E040F60100F2
:2065100028800021698005F118006860287B00F0EF00287340F0800028739AF80E100129A1
:206530000ED141F28830A860297B01F0F00141F005012973687B00F0F00040F0020017E034
:20655000002C0CBF0221002100F0F0000843287324B914F081FE00F57A6000E00020A860F3
:20657000022C697B0CBF0120022001F0F00108436873641C06F15800286106F17801022CED
:206590006961A7DD9AF80E0001280EBF766300207063B068CAF8100012F0BEFAB0654048FA
:2065B00081690878C2074CBF1022002281074CBF2023002341074CBF4024002400074CBF53
:2065D000802000201A43224306F15C01024342F00F020A70002048707A68907C00F003001A
:2065F00048700AF13E004B78027862F382034B701A46407860F3C3024A7042F0100000227A
:206610008A70CA704A608A6048700AF138020A619AF80E00012818BF042813D0B86830B19A
:20663000B0F803008870BA68D2F805004860F86830B1B0F80300C870FA68D2F805008860D1
:20665000184808610AF13002C87D174BCA6000F0EF00C87540F08000C87500F0F00040F04A
:206670000600C875114A8A61187838B148780A7840F0400002F0FE0248700A700C4A9378D1
:2066900048785A064CBF40F0200000F0DF0048700020BDE8F08700BF409A0110109A011047
:2066B000B0CF0100D0470020784E002000204E00642800202DE9FE4F0E468246307AC10623
:2066D00093461F464FF000090CD5584614F070FD030000F0E8800A223146504698475FEA78
:2066F00000094DD130780C9D0D9CDDF8388002281AD170680178407801EB002189B24FF433
:206710002052891A012910D9891E3AD0491E14D0FD397AD0491E00F08180491E6DD0491E62
:2067300073D0491E00F09580ABE0002C2AD1F068017829800278416887E0002C22D10120A4
:206750002880F1680A783A7000217089401C80B214F02AFD298860B10278921C511829802D
:20677000418979704289120ABA7041680278F81C6CE0091D298004220021781C14F054FAC6
:2067900093E0002C66D1F0680688042129803E70320A7A700DF10201304614F005FD04000A
